:100000000C943A000C9457000C9457000C94570031
:100010000C94B0050C944B040C9457000C945700AE
:100020000C9457000C9457000C9457000C949004B7
:100030000C9457000C9457000C9472010C945700C8
:100040000C9457000C9457000C9491000C9457009A
:100050000C9457000C9457000C9457000C945700C4
:100060000C9457000C9457006364696E6F7073753D
:1000700078585B0011241FBECFEFD8E0DEBFCDBFA4
:1000800011E0A0E0B1E0E4EAFBE102C005900D92CE
:10009000AA34B107D9F721E0AAE4B1E001C01D926A
:1000A000A53FB207E1F70E94AE060C94D00D0C9468
:1000B00000009091C00095FFFCCF8093C60008958A
:1000C000CF93DF93809154019091550121E031E06D
:1000D0003F932F939F938F9383E091E09F938F9310
:1000E00085E091E09F938F931F9286E08F9388E63F
:1000F00091E09F938F930E94BD07C8E6D1E08DB732
:100100009EB70C960FB6F8949EBF0FBE8DBF899117
:100110000E94590091E0CE36D907C9F7DF91CF91FF
:1001200008951F920F920FB60F9211248F939F93F1
:10013000AF93BF93EF93FF938091C600803459F043
:10014000843289F08D3279F090ED980F9A3058F022
:1001500010924D0105C081E080934D011092630122
:1001600010924C011EC090914D019923D1F0E09165
:100170006301843261F4EE23A1F0F0E0E059FE4F18
:10018000108281E080934C0110924D010AC0E5304D
:10019000D8F7AE2FB0E0A059BE4F8C93EF5FE0933D
:1001A0006301FF91EF91BF91AF919F918F910F905C
:1001B0000FBE0F901F901895CF92DF92EF92FF9293
:1001C000CF93DF93EB01209176012130E1F36C01B5
:1001D000F12CE12CA7019C0184E0220F331F441F66
:1001E000551F8A95D1F760E074E284EF90E00E9499
:1001F0008107215031094109510927BD9E0150E075
:1002000040E0220F331F441F551FC701B6010E9453
:10021000490728EE33E040E050E00E948107309328
:1002200078012093770116BC85B5826085BD81E099
:1002300080937601DF91CF91FF90EF90DF90CF9088
:100240000895809164019091650197FF03C0919595
:100250008195910920915F014AE0240290011124C7
:100260002817390794F062EC71E084EF91E00E9466
:10027000DC0062EC71E088EE93E00E94DC0062EC4E
:1002800071E080ED97E00C94DC006AEF70E080EDA7
:1002900097E00E94DC006AEF70E088EE93E00E9435
:1002A000DC006AEF70E084EF91E0EDCF259A84B531
:1002B0008E7F84BD84B5826084BD85B5877F85BD12
:1002C000EEE6F0E080818260808385B5887F85BD21
:1002D0000895259A0E94560185B5887F85BD1092A4
:1002E000760108951F920F920FB60F9211248F93EB
:1002F0009F938091770190917801892B61F485B566
:10030000887F85BD109276019F918F910F900FBECF
:100310000F901F90189585B190E2892785B980913B
:1003200077019091780101979093780180937701FC
:10033000EBCF809156019091570120914E01309161
:100340004F0128173907D9F02091560130915701F4
:1003500047E1429FC001439F900D1124C29664E67D
:1003600070E00E94590783E2861B8093B30080915E
:1003700056019091570190934F0180934E0108953B
:10038000239AE0EBF0E08081836080838081806845
:10039000808383E28093B300E1EBF0E080818760AB
:1003A0008083089587B18E6087B988B18E6088B9DF
:1003B000439888B1866088B90895809154019091DE
:1003C0005501009729F488B18E6088B94398089543
:1003D00097FF03C091958195910920915F014AE0B3
:1003E000240290011124281739072CF088B18E605F
:1003F00088B94298089588B18E6088B94198089567
:10040000109280001092810010928500109284005A
:1004100080E593EC9093890080938800EFE6F0E00C
:1004200080818260808308950E9438060E9486063B
:100430000E94000252985A98539A809168008460F2
:100440008093680080916D00846080936D00789443
:100450004A9B04C081E080935C01089510925C0186
:10046000089510928000E1E8F0E01082109285007B
:1004700010928400808188608083AFE6B0E08C9128
:1004800082608C9380818360808388EA91E6909378
:10049000890080938800089580E00E9497068093E9
:1004A0009E01895B893208F072C1809151018111EE
:1004B00007C080915201811164C181E08093520193
:1004C0002FEF43EC59E0215040405040E1F700C08D
:1004D000000080919E0199E7980F993208F05AC167
:1004E00080915301882311F08630C1F41092570196
:1004F0001092560110925B0110925A01109259010C
:100500001092580181E00E941E060E94D10481E0F1
:100510008093530110925501109254018091500123
:10052000882349F081E00E941E060E94D1041092A7
:10053000530110925001809153018B7F813079F4E7
:100540005B9A55E35A95F1F700005B988FEF9DEEAB
:1005500022E0815090402040E1F700C000008091EF
:1005600053018230E1F520915D0130915E014AE056
:10057000429FC001439F900D112464E770E00E94E8
:10058000590770935B0160935A0160E080E00E941C
:10059000300680915A0190915B016AE070E00E9400
:1005A00059079F938F937F936F938DE291E09F9371
:1005B0008F931F928CE08F938AEB91E09F938F93A0
:1005C0000E94BD078AEB91E00E947A064DB75EB7A4
:1005D000465F5F4F0FB6F8945EBF0FBE4DBF809170
:1005E00053018630D9F520915D0130915E014AE0DA
:1005F000429FC001439F900D112464E770E00E9468
:100600005907709359016093580167E080E00E9498
:10061000300680915801909159016AE070E00E9483
:1006200059079F938F937F936F938DE291E09F93F0
:100630008F931F928CE08F9382E991E09F938F9329
:100640000E94BD0782E991E00E947A068DB79EB7AD
:100650000A960FB6F8949EBF0FBE8DBF80915301CE
:10066000833099F5E0915601F09157018091560140
:10067000909157012AE030E0B9010E9459079F93F9
:100680008F93CF01B9010E9459077F936F938DE239
:1006900091E09F938F931F928CE08F9386EC91E073
:1006A0009F938F930E94BD076DE080E00E9430060B
:1006B00086EC91E00E947A064DB75EB7465F5F4FC9
:1006C0000FB6F8945EBF0FBE4DBF809153018111EC
:1006D00011C080915A0190915B01892B59F0809152
:1006E000560190915701892B29F483E0809353019F
:1006F0000E94310280915301811111C080915601F5
:1007000090915701892B59F080915801909159018E
:10071000892B29F40E94000285E080935301809187
:100720005201811186C080919F019091A00197FF95
:1007300003C09195819591099F938F938091D301E7
:100740008F938091D2018F9384E391E09F938F9355
:100750001F9289E18F9381EA91E09F938F930E948A
:10076000BD0760E081E00E9430068DB79EB70A9613
:100770000FB6F8949EBF0FBE8DBF81EA91E00C9436
:100780007A06813009F09CCE1092520199CE1092D7
:1007900051019FCE853108F0C1CE10925301809156
:1007A0005A0190915B01009709F4B8CE209158014D
:1007B000309159012115310509F4B0CE409156010F
:1007C00050915701452B09F4A9CE609156017091C3
:1007D000570182179307E0F4281B390B4AE0429F28
:1007E000C001439F900D11240E945907CB019093A3
:1007F0005501809354016AE070E00E946D07709388
:10080000D3016093D2019093A00180939F0186CE83
:10081000AC01421B530B9A014AE0429FC001439F27
:10082000900D11240E94590788279927861B970B42
:10083000DECF8091660118166CF590916101809170
:100840006601292F092E000C330B3F939F93282F0D
:10085000082E000C330B3F938F9383E391E09F931B
:100860008F931F9289E18F9389E791E09F938F93F4
:100870000E94BD0760E081E00E9430064DB75EB780
:10088000465F5F4F0FB6F8945EBF0FBE4DBF89E75E
:1008900091E075CF08951F920F920FB60F92112419
:1008A0002F933F938F939F93809153018B7F813040
:1008B000A1F429B1922F947022FF80E020915C0175
:1008C000211114C0992339F01092850010928400F0
:1008D00092E09093810080935C019F918F913F9172
:1008E0002F910F900FBE0F901F901895213099F700
:1008F0009111F1CF109281002091840030918500F8
:1009000030935E0120935D0190915301913021F469
:1009100092E090935301DFCF9530E9F696E0F9CF5E
:100920001F920F920FB60F9211248F939F93809175
:100930005301833031F58091560190915701019612
:1009400090935701809356018091560190915701E1
:100950008436910578F010925B0110925A01109242
:10096000550110925401109257011092560181E0E6
:10097000809350019F918F910F900FBE0F901F9009
:1009800018958B7F8130B1F71092810010925E0133
:1009900010925D0110925C01109255011092540169
:1009A000E9CF88B1806388B98091680082608093C4
:1009B000680080916C00806380936C0086B18093A6
:1009C000E501982F90719093F40180728093D40187
:1009D00081114BC0911145C01092D5018091D50174
:1009E0008093E60185E490E00E947F0D8093D6011C
:1009F000843608F43FC010925F011F921F928EE36D
:100A000091E09F938F931F928CE08F9388EE91E0FB
:100A10009F938F930E94BD076BE081E00E94300698
:100A200086E491E00E947A062FEF8DE292E2215057
:100A300080409040E1F700C0000081E00E941E0667
:100A40008DB79EB708960FB6F8949EBF0FBE8DBFA8
:100A500088EE91E00E947A0680915F0180936001A8
:100A6000089581E08093D501B9CF82E09923D1F335
:100A700083E0F8CF80935F01282F082E000C330B02
:100A80003F938F938EE391E09F938F931F928CE01F
:100A90008F9388EE91E09F938F930E94BD076BE048
:100AA00081E00E9430068DB79EB708960FB6F89485
:100AB0009EBF0FBE8DBFCCCF8091E701882381F10F
:100AC0008091600118167CF110925F0180916001A5
:100AD00087FD1092600180915F01282F082E000C85
:100AE000330B3F938F938EE391E09F938F931F92ED
:100AF0008CE08F9387ED91E09F938F930E94BD07C9
:100B00006BE081E00E94300687ED91E00E947A065A
:100B10008DB79EB708960FB6F8949EBF0FBE8DBFD7
:100B20001092E701089580916001833654F083E6C6
:100B300080935F019091600194366CF28093600124
:100B4000CACF8091600190915F01981721F2609166
:100B5000600160935F0185E490E00E94870DBBCF48
:100B60001F920F920FB60F9211242F938F939F9382
:100B700096B1892F807190722091D501211127C0E3
:100B800091111FC0882341F081E08093E60180919C
:100B900060018F5F809360019091E6018091D501A3
:100BA000981739F081E08093E7018091E601809306
:100BB000D5019F918F912F910F900FBE0F901F9095
:100BC00018958111E9CF83E08093E6010EC0209152
:100BD000D501213071F4992321F08823E9F282E0D4
:100BE000D4CF8111D9CF1092E6018091600181505C
:100BF000D1CF2091D501223051F4992321F08111D8
:100C0000CBCF83E0C2CF882339F281E0DDCF9111D1
:100C100005C08111C1CF1092E601B9CF882309F434
:100C2000BBCF82E0D1CF9BB19F709BB99BB1807F3E
:100C3000892B8BB9299A299A29980895CF93C82F7F
:100C400028980E9413068C2F8295807F0E9413069D
:100C50008FE39FE10197F1F700C00000CF91089565
:100C6000811104C080E8860F0C941E0680ECFBCF37
:100C700084B1836084B98AB1806F8AB98FE59AEEB6
:100C80000197F1F700C0000080E30E9413068FE196
:100C90009EE40197F1F700C0000080E30E94130674
:100CA0008FED91E00197F1F700C0000080E30E9412
:100CB000130680E20E9413068FE39FE10197F1F78C
:100CC00000C0000088E20E941E068FE00C941E0601
:100CD000CF93C82F289A0E9413068C2F8295807F6D
:100CE0000E9413068FE39FE10197F1F700C0000017
:100CF000CF910895CF93DF93EC018991811103C0C7
:100D0000DF91CF9108950E946806F7CFECE7F0E0FD
:100D100080818066808380818F778083EAE7F0E03E
:100D2000808187688083808187788083089590910F
:100D30007C00907F90937C0090917C008F70892B39
:100D400080937C0080917A00806480937A00809107
:100D50007A0086FDFCCF8091790008950E94C00141
:100D60000E9438060E9414020E94D2010E9469016A
:100D700087E690E09093C5008093C4008091C10005
:100D800088698093C10086E08093C2007894249A99
:100D90002C982FEF80E792E0215080409040E1F7BF
:100DA00000C0000081E00E941E0663E080E00E9417
:100DB00030068CE091E00E947A0660E081E00E94BB
:100DC000300688E191E00E947A062FEF83ED90E3F0
:100DD000215080409040E1F700C0000081E00E9477
:100DE0001E060E94D104C4E6D1E00AE211E080E7C9
:100DF000E82E81E0F82E9AE0C92ED12C0E945C05E5
:100E00000E94DD010E9499010E944C022091540130
:100E10003091550180914A0190914B012817390773
:100E200061F088E691E00E94600080915401909109
:100E3000550190934B0180934A0180914C01882386
:100E4000E9F2DF93CF931F930F93FF92EF920E94EB
:100E5000ED078091640190916501B6010E946D07D4
:100E600070936701609366019C0197FF03C0319501
:100E70002195310930936201209361010E94210183
:100E800010924C010F900F900F900F900F900F90B9
:100E9000B5CFDB018F939F930E94A307BF91AF91C2
:100EA000A29F800D911DA39F900DB29F900D1124C4
:100EB0000895AA1BBB1B51E107C0AA1FBB1FA617A1
:100EC000B70710F0A61BB70B881F991F5A95A9F7F3
:100ED00080959095BC01CD01089597FB072E16F4DF
:100EE000009407D077FD09D00E94590707FC05D070
:100EF0003EF4909581959F4F0895709561957F4F31
:100F00000895A1E21A2EAA1BBB1BFD010DC0AA1F4A
:100F1000BB1FEE1FFF1FA217B307E407F50720F062
:100F2000A21BB30BE40BF50B661F771F881F991FDD
:100F30001A9469F760957095809590959B01AC0126
:100F4000BD01CF0108950E94AE07A59F900DB49FEB
:100F5000900DA49F800D911D11240895A29FB001B2
:100F6000B39FC001A39F700D811D1124911DB29FDD
:100F7000700D811D1124911D0895AEE0B0E0E3ECE9
:100F8000F7E00C94A70D0D891E898F89988D26E0B6
:100F90002C831A83098397FF02C080E090E80197B1
:100FA0009E838D83AE01455E5F4F698D7A8DCE0144
:100FB00001960E9406084D815E8157FD0AC02F816F
:100FC0003885421753070CF49A01020F131FF801DA
:100FD00010822E96E4E00C94C30DAEE0B0E0E3EF97
:100FE000F7E00C94A90D85E08C838B899C899A830A
:100FF0008983AE01495E5F4F6D897E89CE0101967E
:101000000E946B0B2E96E2E00C94C50DABE0B0E0B5
:10101000ECE0F8E00C94990D7C013B018A01FC01A5
:1010200017821682838181FFC8C1CE0101965C01BF
:10103000F7019381F30193FD859193FF81913F0126
:10104000882309F453C1853239F493FD859193FFC8
:1010500081913F01853229F4B70190E00E94D60CBE
:10106000E7CF912C212C312CFFE1F31538F08B3296
:1010700011F190F4803209F1833229F137FC3CC040
:1010800020ED280F2A3050F536FE20C08AE0989EC9
:10109000200D1124922E06C08D3291F0803371F70D
:1010A000689430F8F30193FD859193FF81913F019E
:1010B0008111DACF21C0689431F8689432F8F2CF08
:1010C000689433F8EFCF689434F8ECCFEAE02E9EC2
:1010D000200D1124222E689435F8E4CF8E3229F4A5
:1010E00036FC04C1689436F8DDCF8C3619F4689468
:1010F00037F8D8CF8836B1F2982F9F7D955493302A
:10110000E0F08336A1F18337C1F1833509F063C084
:101110002801F2E04F0E511CF801C080D180692DEA
:1011200070E036FC02C06FEF7FEFC6010E94840CB6
:101130004C01689437F882010AC00C5F1F4FFFE32F
:10114000F98388248394912C6501E89437F833FE61
:101150002DC0522C8114910471F5552009F468CFEB
:10116000B70180E290E00E94D60C5A94F6CFF801C5
:10117000808189830E5F1F4FE4CF2801F2E04F0E7C
:10118000511CF801C080D180692D70E036FC02C08E
:101190006FEF7FEFC6010E948F0C4C018201D5CF0B
:1011A000B70180E290E00E94D60C2A94281419041A
:1011B00009F0B0F7CECFF60137FC859137FE81916B
:1011C0006F01B70190E00E94D60C51105A94F1E0E3
:1011D0008F1A9108BFCF843619F0893609F077C08D
:1011E000F80137FE6BC060817181828193810C5F51
:1011F0001F4FF32DFF763F2E97FF09C090958095E6
:10120000709561957F4F8F4F9F4F689437F82AE014
:1012100030E0A5010E941E0DC82ECA188C2C432C4C
:1012200036FE0CC0E89440F8C91440F434FE05C002
:1012300032FC03C0F32DFE7E4F2E892C44FE95C058
:10124000FE01EC0DF11D8081803309F087C0242D53
:10125000297E422E842D8870582E43FC95C040FE76
:101260008FC09C2C821418F42C0C922C981844FEDD
:1012700091C0B70180E390E00E94D60C42FE09C005
:1012800088E790E041FE02C088E590E0B7010E9447
:10129000D60CC91408F48AC0CA94D12C9FEFC91A7D
:1012A000D90ACA0CDB1CF60182916F01B70190E0EC
:1012B0000E94D60CAC14BD04B1F74FCF6081718190
:1012C000072E000C880B990B0E5F1F4F92CFD32C6B
:1012D000E894D4F82AE030E0853739F1232D297FCE
:1012E000D22E8F3601F148F48835A9F0F7018681B6
:1012F00097812B96E2E10C94B50D803749F0883741
:10130000A9F7D4FE02C06894D2F820E130E00DC005
:101310006894D4F8F6CF34FE03C0822F8660D82EAE
:1013200020E132E002C028E030E0F801D7FE0FC033
:1013300060817181828193810C5F1F4FA5010E94A2
:101340001E0DC82ECA183D2CE89437F867CF60816F
:10135000718190E080E00E5F1F4FF0CF42FC02C031
:10136000839478CF8394839475CF842D867809F401
:1013700071CFF6CFB70180E290E00E94D60C839443
:101380008214C0F3512C73CF522C5818821408F4D5
:101390006ECFF8CF842D867809F47BCF8BE241FEA7
:1013A00080E247FC8DE2B70190E071CFB70180E3A6
:1013B00090E00E94D60C9A946CCF8FEF9FEF99CF5C
:1013C00020FD09C0FC0123FD05C022FF02C073837C
:1013D000628351834083089544FD17C046FD1DC0BC
:1013E000DB01FC01AA0FBB1FEE1FFF1F1094D1F7FA
:1013F0006A0F7B1F8E1F9F1F660F771F881F991F05
:10140000620F711D811D911D089533E0660F771FD6
:10141000881F991F3150D1F7F3CF34E0F7CF0F93E6
:101420001F93CF93DF938C01C8010E949A0CEC01AB
:1014300097FD08C00E94700C892BB1F7B801CE014E
:101440000E94060DCE01DF91CF911F910F9108955B
:101450008F929F92AF92BF92EF92FF920F931F9342
:10146000CF93DF938C01D62F7A01B22E0E949A0C73
:101470009C0133272B32310529F02D323105A9F497
:101480006894B7F8D15061F480E0DF91CF911F915B
:101490000F91FF90EF90BF90AF909F908F90089525
:1014A000C8010E949A0C97FDEFCFCB2DCD7F2B2D3D
:1014B0002073F9F48033E9F4AA24AA94AD0E89F0DC
:1014C000C8010E949A0C97FD0CC0282F2F7D28354B
:1014D00061F4C264D25029F0C8010E949A0C97FFAF
:1014E00008C0812C912C54011BC0B6FE2BC0C260D9
:1014F000DA2D812C912C540120ED280F283028F171
:10150000C4FD09C02A3008F1C6FF05C02F7D3FEE9B
:10151000320F3630C8F0B8010E94060DC1FFB4CFBB
:10152000C7FF08C0B094A09490948094811C911C33
:10153000A11CB11C2C2FB501A401C7010E94E00918
:1015400081E0A3CFC261D4CF27504C2FC501B40195
:101550000E94EC094B015C01C260D15009F3C80143
:101560000E949A0C97FFC8CFD9CFA0E2B0E0EBEB76
:10157000FAE00C949E0D5C01962E7A01CE01019644
:101580006C0180E2F60111928A95E9F7F501B381C9
:10159000890130E020E0712C812CA0E041E050E096
:1015A000F801B3FD8591B3FF8191982F8F018111CF
:1015B00007C010E000E0C801A096EDE00C94BA0D61
:1015C0008E3519F42115310541F1A21713064CF49B
:1015D0008D3549F18D3229F4811006C08824839419
:1015E0001DC0882009F464C0E92FE695E695E695CC
:1015F000EC0DFD2DF11D892F8770BA0101C0660F1A
:101600008A95EAF78081682B6083791651F09715E7
:1016100010F49F5FE9CF9150E7CFA1E02F5F3F4FDC
:10162000BFCF812CFBCF882019F08E8180628E8302
:10163000AA2359F0F6019E012F5D3F4F80818095CE
:1016400080833196E217F307C9F788248394C50194
:101650000E949A0C97FD16C0E82FE695E695E69550
:10166000EC0DFD2DF11D208130E0AC0147705527B8
:1016700002C0359527954A95E2F720FD06C0B501D1
:101680000E94060D882069F094CFE114F10429F03E
:10169000F7018083C70101967C019A94812C9110F7
:1016A000D6CFE114F10409F486CFF701108283CF7D
:1016B000E82FE695E695E695EC0DFD2DF11D982FAA
:1016C0009770BA0101C0660F9A95EAF79081692B6D
:1016D0006083782EA3CFB0E0A0E0E1E7FBE00C94BC
:1016E0009C0D6C01EB015A01FC0117821682512CF2
:1016F000F601E380FE01E3FC8591E3FE8191182F62
:10170000EF018823E9F090E00E94700C892B21F012
:10171000C6010E940F0AECCF153241F4FE01E3FC32
:101720001591E3FE1191EF01153269F4C6010E9493
:101730009A0C97FD8EC01817D9F2B6010E94060DBB
:10174000852D90E08AC000E01A3231F4E3FC159157
:10175000E3FE1191EF0101E0F12C20ED210F2A3081
:1017600048F101FF37C0FF2059F31836B1F11C369C
:1017700009F43DC0112321F3612F70E088E690E069
:101780000E94790C892BE1F2912C812C00FD06C07E
:10179000F50180809180C50102965C011E3679F5C5
:1017A000F6014681578170E060E0202FC4010E945D
:1017B000E0099ECF02606F2D70E090E080E040E293
:1017C0000E94EC09F62EFE01E3FC1591E3FE119157
:1017D000EF01C3CFFF24FA94C8CFFE01E3FC1591BB
:1017E000E3FE1191EF01183609F0C4CF08600460E0
:1017F000FE01E3FC1591E3FE1191EF01BBCF13361F
:10180000C1F401FD02C0FF24F394C6010E949A0CAA
:1018100097FD1FC08114910429F0F4018083C40155
:1018200001964C01FA94F110F0CF00FD61CF539472
:101830005FCF1B35B9F49E01A4016F2DC6010E9434
:10184000B50AEC01892B89F7F6018381807309F4CD
:1018500077CF8FEF9FEF511073CFCDB7DEB7EFE0AB
:101860000C94B80DC6010E940F0A97FDF2CF1F36E7
:10187000A9F130F4143641F0193639F0006405C08E
:101880001337B9F01537D1F70062202FA4016F2D5F
:10189000C6010E94280A8111C8CFD6CF81149104B5
:1018A00029F0F4016082C40101964C01FA94FF20F2
:1018B00071F0C6010E949A0C3C0197FD08C00E947D
:1018C000700C892B59F3B601C3010E94060D8114D7
:1018D000910409F4AACFF4011082A7CF0061D5CFFB
:1018E00091110C947C0D803219F089508550C8F705
:1018F0000895FC010590061621F00020D9F7C001DB
:1019000008953197CF010895FC0105906150704012
:101910000110D8F7809590958E0F9F1F0895FC01B8
:101920006150704001900110D8F7809590958E0F0E
:101930009F1F0895CF93DF93EC012B8120FF1AC0E6
:1019400026FF0CC02F7B2B838E819F8101969F8366
:101950008E838A8190E0DF91CF91089522FF18C095
:10196000E881F9818081082E000C990B009729F4F9
:1019700020622B838FEF9FEFEECF3196F983E883C0
:101980002E813F812F5F3F4F3F832E839927E3CFE7
:10199000EA85FB85099597FFF3CF2B81019621F00E
:1019A00080E2822B8B83E6CF80E1FBCF0F931F93E6
:1019B000CF93DF93182F092FEB018B8181FD09C095
:1019C0001FEF0FEF812F902FDF91CF911F910F917C
:1019D000089582FF14C02E813F818C819D8128173C
:1019E00039073CF4E881F981CF0101969983888316
:1019F00010838E819F8101969F838E83E3CFE8853C
:101A0000F985812F0995892BA1F3DACFFB01238179
:101A100020FF11C026FD0FC08F3F980771F0828311
:101A20002F7D20642383268137812150310937831C
:101A30002683992708958FEF9FEF0895FA01AA272B
:101A4000283051F1203181F1E8946F936E7F6E5F01
:101A50007F4F8F4F9F4FAF4FB1E03ED0B4E03CD0AF
:101A6000670F781F891F9A1FA11D680F791F8A1F92
:101A7000911DA11D6A0F711D811D911DA11D20D0F9
:101A800009F468943F912AE0269F11243019305DB3
:101A90003193DEF6CF010895462F4770405D4193A4
:101AA000B3E00FD0C9F7F6CF462F4F70405D4A33F1
:101AB00018F0495D31FD4052419302D0A9F7EACFB9
:101AC000B4E0A6959795879577956795BA95C9F7E8
:101AD00000976105710508959B01AC010A2E0694DB
:101AE0005795479537952795BA95C9F7620F731F94
:101AF000841F951FA01D0895992788270895F99997
:101B0000FECF92BD81BDF89A992780B50895262F02
:101B1000F999FECF92BD81BDF89A019700B40216E3
:101B200039F01FBA20BD0FB6F894FA9AF99A0FBE91
:101B300008952F923F924F925F926F927F928F9271
:101B40009F92AF92BF92CF92DF92EF92FF920F934C
:101B50001F93CF93DF93CDB7DEB7CA1BDB0B0FB656
:101B6000F894DEBF0FBECDBF09942A883988488813
:101B70005F846E847D848C849B84AA84B984C884A9
:101B8000DF80EE80FD800C811B81AA81B981CE0FA0
:101B9000D11D0FB6F894DEBF0FBECDBFED01089585
:041BA000F894FFCFE7
:101BA4000124004000257325752573004C65696C7C
:101BB4006120536178627900454531303920537092
:101BC4006565646F6D657465720025640025752E06
:101BD4002575007225642E2564636D2F73005448A7
:0A1BE4003A2530326400494E5600E5
:00000001FF
